:10000000031E080086015F30A000213084008001BB
:10001000840AA00B07282F2824208400073984068F
:100020000310840C840C840C041A841704128419A1
:10003000841684118A01820701340234043408349E
:10004000103420344034803407398A018207303438
:1000500031343234333434343534363437347F3019
:10006000B600813054201030B6009B305420003050
:10007000492037308820852001307520031D422813
:1000800000304D20023058203728462007306620A7
:1000900046280C20FF3A800551280C208004502867
:1000A000FF3A841780059028840036088000902845
:1000B000B701B6006F206400370836040319080042
:1000C000F730FF3E031D612871205B288316F83846
:1000D00081050F39810463000F3081049028B7092E
:1000E000B609B60A0319B70A0800B901B8007A20A0
:1000F0000239902839083702031D82283808360251
:1001000003190234031C04340134B701B6009028EB
:100110000D20BD000005841B3D0603190034013489
:06012000831264000800D8
:02400E006E3F03
:02401000FF3F70
:00000001FF
