:10000000031E080086015F30A000213084008001BB
:10001000840AA00B07282F2824208400073984068F
:100020000310840C840C840C041A841704128419A1
:10003000841684118A01820701340234043408349E
:10004000103420344034803407398A018207303438
:100050003134323433343434353436343734053093
:10006000C920BC0148306220653062206C306220BB
:100070006C3062206F3062200A3062200D306220C6
:100080000130B700F430AD200530C920BC01573035
:1000900062206F306220723062206C3062206430E7
:1000A00062200A3062200D3062200A3062200D305A
:1000B00062200130B700F430AD202F285F200730D8
:1000C000BA205F286400BF000930BE0003106D2015
:1000D000BF0CBE0B672803146D283B0884003A0848
:1000E000BC1D7F283C1D030100063A0580068417CD
:1000F0003A08031C030100063A0580068F28000019
:10010000031C03013C193A0600063A0580068417D1
:100110003A0980058F283C17942803309028023034
:10012000FF3E031D90283C1300308A003C0D063929
:1001300082070830A1281030A1280230A1284030C1
:10014000A128BD003C1BBD0CAA280C30FF3E031D9E
:10015000A6280000BD0BA5280800B600C320640037
:100160003708360403190800F730FF3E031DB52891
:10017000C520AF288316F83881050F398104630044
:100180000F308104CE28B709B609B60A0319B70A99
:10019000080024200D20BA000408BB00831264006C
:0201A000080055
:02400E006E3F03
:02401000FF3F70
:00000001FF
