:10000000031E080086015F30A000213084008001BB
:10001000840AA00B07282F2824208400073984068F
:100020000310840C840C840C041A841704128419A1
:10003000841684118A01820701340234043408349E
:10004000103420344034803407398A018207303438
:10005000313432343334343435343634373419307F
:10006000B600993095209030B60018309520203099
:10007000B600983095200130DD208601A401A3014F
:100080000130A20070202108E1200030C820031DAB
:1000900053287F202408E1200130B0203608A40036
:1000A000240886003F28013099202230E420C02017
:1000B0002230EB200130CD20031D64282730B90009
:1000C0001030C42003194228013086000130B700E7
:1000D000F4309A2086010130B700F4309A20642869
:1000E000A1010C309220A0004530F220E120003028
:1000F000C820031D7E281A309220A100FA280C3057
:100100009220A0004430F220E1200030C820031DDE
:100110007F282108B60019309520FA288F20073053
:10012000A7208F2884000008FA2884003608800061
:10013000FA28B701B600BE20640037083604031958
:100140000800F730FF3E031DA228C0209C2883161C
:10015000F83881050F39810463000F308104FA28D3
:10016000B901B80036308400380880073908840F98
:1001700000000318013E031C8007FA28B709B609DE
:10018000B60A0319B70A0800B800D2200139FA28C4
:10019000B901B800D2200239FA28B901B800D2203A
:1001A0000439FA2839083702031DDA2838083602DC
:1001B00003190234031C04340134FF3A8316860009
:1001C000FA28B701B600FA2884000008B600840AAD
:1001D0000008B700FA28840036088000840A37082F
:1001E0008000FA280D20BD000005841B3D06031980
:0A01F000003401348312640008009B
:02400E006E3F03
:02401000FF3F70
:00000001FF
