:10000000031E080086015F30A000213084008001BB
:10001000840AA00B07282F2824208400073984068F
:100020000310840C840C840C041A841704128419A1
:10003000841684118A01820701340234043408349E
:10004000103420344034803407398A018207303438
:100050003134323433343434353436343734103088
:10006000B6009B30E8200730B6009C30E820003016
:10007000B6008530E8206430EC208D20B4200130BB
:10008000B700F430ED20A40100308A002408FB3EC4
:1000900003185428053E4E20A200542882074834F5
:1000A00065346C346C346F34D12024084F212E21F8
:1000B0003608A40000303F21031D622804303A2195
:1000C000031944280130B700F430ED20C030A200FD
:1000D000B620A40100308A002408FB3E03187A28C9
:1000E000053E7420A2007A28820757346F34723498
:1000F0006C346434D12024084F212E213608A4000A
:1001000000303F21031D882804303A2103196A2852
:100110000130B700F430ED203E280F30EC200330E2
:10012000B6000530E8200630DD20D4200530EC2074
:100130000330B6000530E820D4200130EC20033035
:10014000B6000530E820D4200130EC200230B600A3
:100150000530E820D4202830A200B6200C30A200C0
:10016000B6200630A200B6280130A2000630DD20FD
:1001700022084F21103003213608A3002308B600BF
:100180000530E820D42022084F210F301A213608EC
:10019000A3002308B6000530E820D4200230EC206C
:1001A00052290630E120B8280330E1200330DD2059
:1001B0005229DA200730FA20DA280C20FF3A80058D
:1001C000E5280C208004E428FF3A84178005522992
:1001D0008400360880005229B701B6002C21640043
:1001E0003708360403190800F730FF3E031DF528D1
:1001F0002E21EF288316F83881050F39810463001A
:100200000F3081045229B901B8001030BF00BE017F
:10021000BD010314B60DB70DBD0DBE0D32213D302D
:100220002121031C361032213D30361C2121BF0B09
:1002300009295229B901B8003808B6053908B705A7
:1002400052298400380880073908840F00000318F9
:10025000013E031C80075229B709B609B60A0319E3
:10026000B70A08003721B80A0319B90A5229B9098F
:10027000B8095229B901B800442101395229B901FC
:10028000B80044210439522939083702031D4C298A
:100290003808360203190234031C04340134B70150
:0A02A000B600522983126400080022
:02400E006E3F03
:02401000FF3F70
:00000001FF
