:04000000B6013429E8
:08000800A9004B30A0004C30B0
:10001000A100FD2003191210031D1214FC3E031C45
:100020009210031892144030A0004B30A1004C30C5
:10003000A400A5011218462092184620FF20200394
:100040008316920083122008A2002108A30028082A
:10005000A600A700280FA70119212508A90B3C28F5
:1000600095000C309700A41B9716241B17168316B7
:100070000711831212152F299B000C309D00A41B21
:100080009D16241B1D168316871039284720031040
:10009000A40CA10CA00C0800A700891009100910DD
:1000A00083168910091009100F308805831227085C
:1000B000B61878283A30A1009830B6203330A60020
:1000C0008C201330A1008830B6208C206430B520FD
:1000D0008C206430B5202230A6008C202830772078
:1000E0000C30772006307720B6142708782836148D
:1000F000A600361C86280910033C031C8B288B2085
:100100000730A100D030B620031408003614FE3C9E
:1001100003192F290914361C361089140F3088054D
:100120002608F03988048910A60E36188C2832303B
:10013000B5200314080000308A0028080739820718
:100140000134023404340834103420344034803410
:10015000A301A200FF30A207031CA307031C2F2941
:100160000330A100E630B620AA28A101FC3EA00081
:10017000A109031CC128FF300000A0070318BC28F8
:10018000A0076400A10FBB280800A8009B20A001C5
:10019000A101A81DA000A819A10020082F29A000D6
:1001A0001130FF3EA00DA10D031CD1282F290310F3
:1001B000A10CA00CFF3E0318D72820082F29A1016D
:1001C000A301A2000230E628A2000530A8002308FF
:1001D0002102031DED2822082002043003180130FB
:1001E000031902302805031DFF302F290038031D95
:1001F000FF300405031DFF302F29A501A401103095
:10020000A600210DA40DA50D2208A4022308031C9D
:10021000230FA502031813292208A4072308031893
:10022000230FA5070310A00DA10DA60B012920087F
:100230002F291030A800A101A001A70CA60C031CB7
:1002400027292208A00723080318230FA107A10CC0
:10025000A00CA50CA40CA80B1D2924082F2983137E
:100260000313831264000800831688018312880137
:10027000831607309F00643083128A01A820FE3065
:100280008A014C2001308A014C208316811383128D
:10029000FF30BF008810FA308A01A820FE308A01A2
:1002A0004C2001308A014C2050308A014C207230A1
:1002B0008A014C2065308A014C2073308A014C2021
:1002C00073308A014C2020308A014C2041308A0151
:1002D0004C2020308A014C2066308A014C206F303F
:1002E0008A014C2072308A014C2020308A014C2037
:1002F0006F308A014C2066308A014C2066308A01BA
:100300004C202D308A014C2068308A014C206F30FF
:100310008A014C206F308A014C206B308A014C20BE
:10032000FE308A014C20C0308A014C2000308818F1
:100330000130A00001308A01DF20B20000308519B1
:100340000130A00001308A01DF20B40032088400AF
:1003500034088A01F6208A110A12031D48298A11DD
:100360000A12E12264003F080C3C8A110A12031DA4
:100370003E2A8814FA308A01A820FE308A014C20D7
:1003800001308A014C2050308A014C2072308A01A1
:100390004C2065308A014C2073308A014C20733028
:1003A0008A014C2020308A014C2042308A014C20A6
:1003B00020308A014C2074308A014C206F308A0131
:1003C0004C2020308A014C2068308A014C2061305A
:1003D0008A014C206E308A014C2067308A014C2003
:1003E00020308A014C2075308A014C2070308A01FF
:1003F0004C20FE308A014C20C0308A014C20FE3057
:100400008A014C20C0308A014C2072308A014C2075
:1004100065308A014C2061308A014C2064308A01A9
:100420004C2079308A014C2020308A014C20203029
:100430008A014C2020308A014C2020308A014C2037
:1004400020308A014C2020308A014C2020308A0143
:100450004C2020308A014C2020308A014C20203052
:100460008A014C2020308A014C2020308A014C2007
:100470003D088A014C208A110A12DF2A64003F08D5
:100480000F3C8A110A120319532A64003F080E3CDC
:100490008A110A120319532A64003F080D3C8A117D
:1004A0000A12031D582A8A0148298A110A12DF2AD2
:1004B00064000C303F028A110A120318DF2AFE3052
:1004C0008A014C20C0308A014C2044308A014C20E3
:1004D00069308A014C2061308A014C206C308A01DD
:1004E0004C2069308A014C206E308A014C206730E4
:1004F0008A014C203A308A014C2020308A014C205D
:100500003D088A014C2064008A110A12881CA32A23
:100510000130BE0064003E083F028A110A12031C2B
:100520009E2A2D308A01A820881041308A01A820F7
:100530008814BE0A8A110A12031D8A2A0130A300F8
:100540002C308A01A920FE308A014C20C0308A015B
:100550004C2072308A014C2065308A014C20613079
:100560008A014C2064308A014C2079308A014C2069
:1005700020308A014C2020308A014C2020308A0112
:100580004C2020308A014C2020308A014C20203021
:100590008A014C2020308A014C2020308A014C20D6
:1005A00020308A014C2020308A014C2020308A01E2
:1005B0004C2020308A014C203D088A014C208A01C1
:1005C0009629C0016400043040028A110A120318FF
:1005D000132B860140088A01C520B2002108B30010
:1005E00032098316860083120608A000A101043098
:1005F0008A01DA20BC0064003C080F3C8A110A1210
:1006000003190E2B7F30A8004C30A2001D30A30030
:1006100001308A0104208A110A12162BC00A8A119D
:100620000A12031DE22AFF30BF0008000F308A01C2
:10063000A820A801A201A30101308A01042086019B
:100640008316F030860083120608A000A101043052
:100650008A01DA20B2002108B3003208A000330872
:10066000A100A3010F308A01E4208A110A12031DA0
:10067000162B4008A600A7010430A200A3018A019E
:100680001921B2002508B3000F303C06B400003039
:10069000B5003508A10034088A01CF20B400B501A7
:1006A0003208B40733080318013EB5073403BF000E
:1006B0003F080F3C8A110A12031C792B8A110A1277
:1006C0006523BD008A110A12792B03308A003F0886
:1006D00082073134323433344134343435343634AF
:1006E000423437343834393443342A3430342334C0
:1006F00044343F080F3C8A110A12031C9A2B8A11BA
:100700000A128623BF008A110A129A2B03308A002C
:100710003F0882070134023403340C3404340534B6
:1007200006340D340734083409340E3400340A34E6
:0C07300000340F34080063008A019B2B8A
:02400E00763FFB
:00000001FF
