:04000000B6017E299E
:08000800A9004B30A0004C30B0
:10001000A100422103191210031D1214FC3E031CFF
:100020009210031892144030A0004B30A1004C30C5
:10003000A400A5011218462092184620442120034E
:100040008316920083122008A2002108A30028082A
:10005000A600A700280FA7015E212508A90B3C28B0
:1000600095000C309700A41B9716241B17168316B7
:1000700007118312121579299B000C309D00A41BD7
:100080009D16241B1D168316871039284720031040
:10009000A40CA10CA00C08000408A70089100910EA
:1000A000091083168910091009100F308805831272
:1000B0002708B61879283A30A1009830F820333054
:1000C000A6008D201330A1008830F8208D206430E8
:1000D000F7208D206430F7202230A6008D202830B4
:1000E00078200C30782006307820B614270879283C
:1000F0003614A600361C87280910033C031C8C28E4
:100100008C200730A100D030F820031408003614EA
:10011000FE3C031979290914361C361089140F3056
:1001200088052608F03988048910A60E36188D280F
:100130003230F72003140800B71329080319B71742
:100140000430A800250EA9202508A920240EA920E6
:1001500024080F39F63E0318073E0A3ECC28B71391
:1001600029080319B7170530A8002730A30010305D
:10017000C5200330A300E830C520A3016430C520AA
:10018000A3010A30C5202408CC28A2002508A1001C
:100190002408A00042212008A000A8030319B713D7
:1001A00029080319D6282802031808002008031D6F
:1001B000B713B71B0800303E742900308A002808A6
:1001C00007398207013402340434083410342034EF
:1001D00040348034A301A200FF30A207031CA30710
:1001E000031C79290330A100E630F820EC28A10196
:1001F000FC3EA000A109031C0329FF300000A0075A
:100200000318FE28A0076400A10FFD280800A8001D
:10021000DD20A001A101A81DA000A819A1002008AF
:100220007929A0001130FF3EA00DA10D031C132958
:100230007929A201A3012029A10CA00CA20DA30DD4
:10024000FF3E03181C292308A1002208A0007929D9
:100250000310A10CA00CFF3E0318282920087929BF
:10026000A2000530A80023082102031D3929220815
:100270002002043003180130031902302805031D41
:10028000FF307929A501A4011030A600210DA40D8D
:10029000A50D2208A4022308031C230FA50203189E
:1002A00058292208A40723080318230FA5070310C1
:1002B000A00DA10DA60B4629200879291030A80011
:1002C000A101A001A70CA60C031C6C292208A00701
:1002D00023080318230FA107A10CA00CA50CA40C44
:1002E000A80B622924087929840031088A00300883
:1002F00082008313031383126400080083160730FF
:100300009F00C83083128A01EA20FE308A014D2006
:1003100001308A014D20E401BC01BD01081583169E
:100320000811403094008312223094008316143058
:10033000870081138312FE308A014D2001308A012B
:100340004D2041308A014D2020308A014D207430EB
:100350008A014D206F308A014D2020308A014D20C6
:1003600072308A014D2065308A014D2063308A0148
:100370004D206F308A014D2072308A014D2064304B
:100380008A014D20FE308A014D20C0308A014D2067
:1003900042308A014D2020308A014D2074308A017C
:1003A0004D206F308A014D2020308A014D2073305E
:1003B0008A014D2074308A014D206F308A014D2012
:1003C00070308A014D208A110A124B23640065089F
:1003D0000C3C8A110A12031D782AFE308A014D2036
:1003E00001308A014D2072308A014D2065308A012A
:1003F0004D2063308A014D206F308A014D207230CC
:100400008A014D2064308A014D2069308A014D20D7
:100410006E308A014D2067308A014D2020308A01DC
:100420004D206D308A014D2065308A014D2073309A
:100430008A014D2073308A014D2061308A014D20A0
:1004400067308A014D2065308A014D203A308A019B
:100450004D2020308A014D20A9016408A400A50187
:100460004C30B000B1018A01AF20FE308A014D202E
:10047000C0308A014D2061308A014D2064308A01EC
:100480004D2064308A014D2072308A014D20653044
:100490008A014D2073308A014D2073308A014D202E
:1004A0003A308A014D2020308A014D20A9010310E5
:1004B000640D3C3E84000008B200840A0008B300CA
:1004C0003208A4003308A5004C30B000B1018A0105
:1004D0009C200310640D3C3E84000008DC00840A6C
:1004E0000008DD008A110A12E4238A110A12492B3E
:1004F000640065080D3C8A110A12031DB62AFE30FD
:100500008A014D2001308A014D2073308A014D202F
:1005100074308A014D206F308A014D2070308A017D
:100520004D208A110A12002401306407B200B30181
:10053000B30D0F303205E4005E08A0005F08A10093
:1005400002308A012B21B2002108B3000230B20729
:100550000318B30A0310640D3C3E84003208800087
:10056000840A330880008A110A12492B64000A3079
:1005700065028A110A120318492BFE308A014D20A8
:1005800001308A014D2070308A014D206C308A0183
:100590004D2061308A014D2079308A014D2069302B
:1005A0008A014D206E308A014D2067308A014D202E
:1005B00020308A014D206D308A014D2065308A013E
:1005C0004D2073308A014D2073308A014D206130F7
:1005D0008A014D2067308A014D2065308A014D2007
:1005E0003A308A014D2020308A014D20A90165084A
:1005F000A400A5014C30B000B1018A01AF20FE304B
:100600008A014D20C0308A014D2061308A014D2081
:1006100064308A014D2064308A014D2072308A0195
:100620004D2065308A014D2073308A014D20733092
:100630008A014D203A308A014D2020308A014D2018
:10064000A9010310650D3C3E84000008B200840A35
:100650000008B3003208A4003308A5004C30B000F5
:10066000B1018A019C200310650D3C3E8400000806
:10067000DC00840A0008DD008A110A12F2236400FB
:100680008A110A12851A3F2B8A110A1200248A0144
:100690009B298A01E329E6016400043066028A117D
:1006A0000A1203187D2B860166088A010721B20011
:1006B0002108B30032098316860083120608A000C1
:1006C000A10104308A012B21E200640062080F3C82
:1006D0008A110A120319782B7F30A8004C30A2002F
:1006E0001D30A30001308A0104208A110A12802BD8
:1006F000E60A8A110A12031D4C2BFF30E5000800A0
:100700000F308A01EA20A801A201A30101308A0169
:10071000042086018316F030860083120608A000AC
:10072000A10104308A012B21B2002108B300320854
:10073000A0003308A100A3010F308A0130218A11E3
:100740000A12031D802B6608A600A7010430A20030
:10075000A3018A015E21B2002508B3000F306206B2
:10076000B4000030B5003508A10034088A01112119
:10077000B400B5013208B40733080318013EB507C9
:100780003403E50065080F3C8A110A12031CE32BB1
:100790008A110A12CF23E5008A110A12E32B0330D3
:1007A0008A00650882070134023403340C340434AF
:1007B000053406340D340734083409340E340A3451
:1007C00000340B340F3408002030E3008A110A1281
:1007D000062464308A01EA20A030E3008A110A125C
:1007E000062408002030E3008A110A120624323061
:1007F0008A01EA20E030E3008A110A120624080088
:100800001030E3008A110A1206240800081183162A
:100810000811073083125D05B200B301630832048A
:10082000DD005C08A0005D08A10010308A011921DC
:10083000E0002108E100610893008A110A123824BF
:100840001308DF00600893008A110A123824130885
:10085000DE005E08A0005F08A10010308A011921A7
:10086000DE002108DF000815831608118312080036
:1008700064008A110A1283168310141C83148312D5
:100880008318382C831614108312080063008A0121
:02089000462CF4
:02400E00763FFB
:00000001FF
