:10000000031E080086015F30A000213084008001BB
:10001000840AA00B07282F2824208400073984068F
:100020000310840C840C840C041A841704128419A1
:10003000841684118A01820701340234043408349E
:10004000103420344034803407398A018207303438
:1000500031343234333434343534363437347F3019
:10006000B6008130552007308620860136308D203D
:100070008A2001307620031D3E28061535308D205C
:100080008A2001307620031D4628861434308D20C6
:100090008A2001307620031D4E2806140230592094
:1000A0003528522007306720522884003608800007
:1000B0009528B701B600702064003708360403198C
:1000C0000800F730FF3E031D622872205C2883166B
:1000D000F83881050F39810463000F3081049528B9
:1000E000B709B609B60A0319B70A0800B901B8007A
:1000F0007B200239952839083702031D83283808E8
:10010000360203190234031C04340134FF3A831607
:1001100086009528B701B60095280D20BD00000582
:10012000841B3D0603190034013483126400080067
:084000007F007F007F007F00BC
:04400E00753D0400F8
:00000001FF
