:04000000B2011A2906
:10000800A400B3172730A300103016200330A30034
:10001800E8301620A30164301620A3010A30162008
:1000280024082128A2002508A1002408A000F920FE
:100038002008031DB313B31B0800303EA700891026
:100048000910091083168910091009100F30880546
:1000580083122708B2184E283A30A1009830D620CB
:100068003330A60062201330A1008830D6206220E9
:100078006430D52062206430D5202230A60062206A
:1000880028304D200C304D2006304D20B214270862
:100098004E283214A600321C5C280910033C031CAD
:1000A800612861200730A100D030D6200314080051
:1000B8003214FE3C031915290914321C3210891414
:1000C8000F3088052608F03988048910A60E3218E2
:1000D80062283230D520031408000830A600A70093
:1000E8003708840035083319BC20331DBE20360874
:1000F80084003408C120A001A1012608031915298C
:10010800B318B5203608840000083405FF3EA00D5A
:10011800A10DB31CB520A60B842827083318EA289C
:10012800200815290830A600370884003508331937
:10013800BC20331DBE20360884003409C52026089B
:10014800031915293318EA2036088400A10CA00CDD
:1001580000083404031C34068000B520A60BA82828
:100168001529370884003508800600008006080035
:100178008004C428FF3A8005C528841780041529FF
:10018800FF3A841780051529A301A200FF30A207B2
:10019800031CA307031C15290330A100DF30D62058
:1001A800CA28A101E83EA000A109FC30031CDF28F1
:1001B800A0070318DC28A0076400A10FDC2820187A
:1001C800E528A01CE9280000E9280800A201A301ED
:1001D800F128A10CA00CA20DA30DFF3E0318ED28D9
:1001E8002308A1002208A0001529A501A4011030A8
:1001F800A600210DA40DA50D2208A4022308031CA6
:10020800230FA50203180F292208A407230803189F
:10021800230FA5070310A00DA10DA60BFD2820088C
:1002280015298313031383126400080087168316A5
:10023800871207309F008312091183160911643051
:1002480083128A01C8208A110A127229871205307E
:10025800B6000430B4000730B7000830B5000130EC
:10026800B3000130A000A10101308A0197204008A5
:10027800A000A10103308A019720A001A10101304B
:100288008A0197200730B6000230B4000730B70063
:100298000830B500B3010C308A017220B80021087B
:1002A800B900871608000530C0008A012A213808DD
:1002B800BA003908BB0008000730C0008A012A21AB
:1002C8003808BC003908BD0008000130C0008A01A8
:1002D8002A213808BE003908BF0008008A015721C2
:1002E8008A0160218A016921FE308A0122200130B9
:1002F8008A01222078308A0122203D308A0122207A
:100308003B08A5003A088A01042020308A012220EF
:1003180079308A0122203D308A0122203D08A5003B
:100328003C088A01042020308A0122207A308A0180
:1003380022203D308A0122203F08A5003E088A017C
:10034800042064308A01C8208A01722963008A0166
:02035800AA29D0
:02400E007D3FF4
:00000001FF
