:04000000B401FB2824
:100008000408A7008910091009108316891009101F
:1000180009100F30880583122708B41831283A30A0
:10002800A1009830A3203330A60045201330A1004A
:100038008830A32045206430A22045206430A220C7
:100048002230A6004520283030200C3030200630E1
:100058003020B414270831283414A600341C3F2853
:100068000910033C031C442844200730A100D03069
:10007800A320031408003414FE3C0319F6280914BD
:10008800341C341089140F3088052608F039880488
:100098008910A60E341845283230A220031408000F
:1000A800B51329080319B5170530A8002730A30090
:1000B80010306A200330A300E8306A20A3016430BE
:1000C8006A20A3010A306A2024087128A2002508A2
:1000D800A1002408A000BF202008A000A80303193D
:1000E800B513290803197B282802031808002008DB
:1000F800031DB513B51B0800303EF128A000A00D64
:10010800A00D200D3839C1389F000030A1003230D1
:10011800A3201F151F198E281E08A10083161E086C
:10012800F628A301A200FF30A207031CA307031CA3
:10013800F6280330A100DF30A3209728A101E83E6C
:10014800A000A109FC30031CAC28A0070318A928AB
:10015800A0076400A10FA9282018B228A01CB6285F
:100168000000B62808000310A10CA00CFF3E0318DD
:10017800B7282008F628A501A4011030A600210DF3
:10018800A40DA50D2208A4022308031C230FA50211
:100198000318D5282208A40723080318230FA50746
:1001A8000310A00DA10DA60BC3282008F6281030B7
:1001B800A800A101A001A70CA60C031CE92822088D
:1001C800A00723080318230FA107A10CA00CA50C56
:1001D800A40CA80BDF282408F628840031088A001C
:1001E8003008820083130313831264000800831607
:1001F800FF30850082309F00831209118316091190
:1002080083120130A300F4308A01962000308A015D
:100218008220BA002108BB003A08A6003B08A700C4
:10022800F430A2000130A3008A01DB202508B200C7
:100238002008B3003208A0003308A10002308A0168
:10024800BA20BA002108BB00FE308A01052001301F
:100258008A01052044308A01052043308A0105209F
:1002680020308A01052056308A0105206F308A0126
:1002780005206C308A01052074308A01052073300E
:100288008A0105203D308A01052020308A01052099
:10029800A9013A08A0003B08A1006430A200A3010C
:1002A8008A01BF20B2002108B3003208A400330835
:1002B800A5000430B000B1018A0154202E308A0113
:1002C80005200230A9003A08A4003B08A500043024
:1002D800B000B1018A01542064308A0195208A0156
:0802E8000A2963008A0175294F
:02400E007D3FF4
:00000001FF
