:020000040000FA
:100000003E28A301A200FF30A207031CA307031C84
:1000100039280330A100DF300F200328A101E83E7A
:10002000A000A109FC30031C1828A00703181528FC
:10003000A0076400A10F152820181E28A01C222844
:100040000000222808001030A800A101A001A70C80
:10005000A60C031C31282208A00723080318230F2D
:10006000A107A10CA00CA50CA40CA80B2728240800
:1000700039288313031383126400080003179E01B9
:100080009F0183160313CF3085008312B8016400EB
:10009000043038028A1103185F283808A600A70127
:1000A0001030A200A3018A01232085000130A300A3
:1000B000F4308A010220B80A8A11031D47288A01F8
:0800C000462863008A01612853
:02400E00FC3F75
:00000001FF
