:1000000028288F018E00FF308E07031C8F07031CEA
:10001000232803308D00DF300F2003288D01E83EB8
:100020008C008D09FC30031C18288C070318152838
:100030008C0764008D0F15280C181E288C1C222894
:1000400000002228080083130313831264000800B1
:10005000831603308500860183123F30A4000630EA
:10006000A5005B30A6004F30A7006630A8006D30B9
:10007000A9007D30AA000730AB007F30AC006F30A4
:10008000AD0085013F308600B001B301B1017120A0
:100090006400051C5B2864300120B30A6400330847
:1000A0000A3C031D5B28B301B00A640030080A3C17
:1000B000031D5B28B0016400851C7028643001209A
:1000C000B30364003308003C031D70280A30B300FA
:1000D000B00364003008003C031D70280A30B000F3
:1000E00047283308243E84000008860085150A301E
:1000F000012085113008243E840000088600051583
:0C0100000A30012005110800630084286B
:02400E00FD3F74
:00000001FF
