:020000040000FA
:06000000126AD0EF00F0CF
:08000800046E138E270E036E37
:10001000100E0CD8030E036EE80E08D8036A640EA7
:1000200005D8036A0A0E02D804500BD0026E0550A0
:10003000016E0450006EB1EC00F00066139E13BE1A
:100040001200300F076E849284908490969296905E
:1000500096900F0E9516075012B222D03A0E016EEE
:10006000980E8DEC00F0330E066E2FD8130E016E35
:10007000880E8DEC00F029D8640E8CEC00F025D8A9
:10008000640E8CEC00F0220E066E1FD8280E07D8E6
:100090000C0E05D8060E03D81282075001D012802C
:1000A000066E12A00BD0849003080EE30DD8070E45
:1000B000016ED00E8DEC00F0D88012001280FE0888
:1000C000D8B4CDEF00F0848012A0129084820F0E7D
:1000D00083160650F00B8312000000D0000000D001
:1000E0008492063A000000D0000000D012B0EDD794
:1000F000320E8CEC00F0D880CDEF00F0036A026E77
:10010000FF0E0226D8A00326D8A0CDEF00F0030EE4
:10011000016EE70E02D8F4D7016AFD0F006EFF0EE4
:1001200000D001D00026040000D000D0D8A00126C5
:10013000D8A01200F7D7026E030E03D0026E060E8F
:1001400000D0086E0350015C02E10250005C040E16
:10015000D8B0010ED8B4020E0814D8A4FF0ECDEF0B
:1001600000F0056A046A100E066E01340436053686
:100170000250045E0350D8A0033C055E07E2025023
:1001800004260350D8B0033C0526D890003601362B
:10019000062EEBD70050CDEF00F000010400120056
:1001A000F19E0F0EC16E8494969480949294816A0D
:1001B000FE0E936E640EA2DF1EEC01F0040081B807
:1001C000E4EF00F0F9EC00F0040081BAEAEF00F08F
:1001D0001EEC01F0040081BCF0EF00F00AEC01F02D
:1001E00080841BC001F01A5098DF8094100E86DFC7
:1001F000E5D71AC000F01BC001F0070E036ED00E49
:100200009ADFD8A409EF01F01A2AD8B41B2A22ECED
:1002100001F012001AC000F01BC001F0030E036EC3
:10022000E80E8CDFD8A41DEF01F0010E1A5E000E5F
:10023000D8A0010F1B5E22EC01F01200DC0E1A6E3A
:10024000050E1B6EFE0EFEDE010EFCDE500EFADE0B
:100250006F0EF8DE730EF6DE690EF4DE740EF2DE5B
:10026000690EF0DE6F0EEEDE6E0EECDE200EEADEC4
:100270003D0EE8DE200EE6DE1BC005F01A50C4DE9F
:0602800012000300FED78E
:020000040030CA
:08000000E4FEFFEFFFFD9BFF92
:00000001FF
