:1000000028288F018E00FF308E07031C8F07031CEA
:10001000232803308D00DF300F2003288D01E83EB8
:100020008C008D09FC30031C18288C070318152838
:100030008C0764008D0F15280C181E288C1C222894
:1000400000002228080083130313831264000800B1
:100050008316860183128601861683168612831202
:10006000061483160610831223308F0028300220D6
:1000700006108316061083128614831686108312C8
:100080000B308F00B8300220861083168610831242
:1000900086128316861283128615831686118312A2
:1000A000061583160611831223308F002830022094
:1000B0008611831686118312061683160612831282
:1000C0000B308F00B8300220061183160611831200
:0E00D00006128316061283122C2863006D2878
:02400E00FD3F74
:00000001FF
