:10000000B201C528A501A400B3172730A300103002
:1000100015200330A300E8301520A301643015201B
:10002000A3010A30152024082028A2002508A100D9
:100030002408A000A4202008031DB313B31B08004C
:10004000303EA70086110613061383168611061389
:100050000613F030850583122708B2184D283A3070
:10006000A100983090203330A60062201330A10008
:1000700088309020622064308F20622064308F208E
:100080002230A600622028304C200C304C20063054
:100090004C20B21427084D283214A600321C5B28CD
:1000A0000613033C031C602860200730A100D030F9
:1000B0009020031408003214FE3C0319C0280617D0
:1000C000A60E321C32108615F030850526080F3931
:1000D00085048611A60E3218622832308F20031450
:1000E0000800A000A00DA00D200D3839C1389F00D8
:1000F0000030A100323090201F151F197D28A1016A
:100100001E08C028A301A200FF30A207031CA307FA
:10011000031CC0280330A100DF3090208428A101F7
:10012000E83EA000A109FC30031C9928A007031891
:100130009628A0076400A10F962820189F28A01CCD
:10014000A3280000A3280800A501A4011030A600E0
:10015000210DA40DA50D2208A4022308031C230FC2
:10016000A5020318BA282208A40723080318230F9E
:10017000A5070310A00DA10DA60BA8282008C028D4
:1001800083130313831264000800831610309B004E
:1001900007309C00643083128A01822004308A0177
:1001A0007120B800FE308A01212001308A0121200F
:1001B00070308A0121206F308A01212074308A0139
:1001C00021203D308A01212038088A010220643034
:0E01D0008A0182208A01CE2863008A01EC2871
:02400E006E3F03
:00000001FF
