:10000000B2010329B216B21EB212B2190B28B215F0
:100010004420031832280830A3005820A20DA30B57
:100020000D28B21E3D2062205E20B21A32203720F9
:1000300022080310FE28B216B21EB2123219252869
:10004000FE39B30032150310FE28321A2D28A600FF
:10005000321644200318322826084B200318322871
:10006000B21EFE283D20622032113212B211360833
:100070008400340884178004432836088400340937
:100080008005841780050800372062203D205E200F
:100090003308B2190138A2000830A300A20D0318DA
:1000A0003720031C3D2062205E20A30B4E28372002
:1000B00062203608840034080005FF3E37088400BB
:1000C000350940283708840035083A28A501A400DE
:1000D000B3172730A300103079200330A300E83095
:1000E0007920A30164307920A3010A307920240803
:1000F0008428A2002508A1002408A000E2202008EE
:10010000031DB313B31B0800303EA600360884005D
:100110000930A70003109120A60CA70B8B2803140D
:1001200091288413B31DA02800083404331D34061D
:100130008000841700083404031C34068000AB28B8
:1001400000083404031C3406331934068000841775
:1001500034098005AB28330D0639A000B420A10076
:10016000A00AB4200000CE2800308A0020088207B0
:10017000013475340334153400343C340C34D93430
:10018000A301A200FF30A207031CA307031CFE2843
:100190000330A100DF30CE20C228A101E83EA0003C
:1001A000A109FC30031CD728A0070318D428A007F6
:1001B0006400A10FD4282018DD28A01CE12800002D
:1001C000E1280800A501A4011030A600210DA40D0E
:1001D000A50D2208A4022308031C230FA50203185F
:1001E000F8282208A40723080318230FA5070310E3
:1001F000A00DA10DA60BE6282008FE2883130313EB
:1002000083126400080083169F018312073099004F
:100210008316811383120130A300F430C120B8018A
:1002200064001030380203182A2964303807B900F6
:100230000530B6002030B4000530B7001030B500EE
:10024000A0301D2038081D2039081B200A30C0208E
:10025000B80F1029B80164001030380203185D2966
:100260000530B6002030B4000530B7001030B500BE
:10027000A0301D2038081D200420B9000220BA003B
:100280000530B6000230B400B301FE3085200130E5
:100290008520380866203A308520203085203908AE
:1002A0006620203085203A0866200330A300E8301D
:1002B000C1200230B807031C2B292A2963005E29BC
:02400E00FC3F75
:00000001FF
