:10000000031E080085015F30A000213084008001BC
:10001000840AA00B07282F2824208400073984068F
:100020000310840C840C840C041A841704128419A1
:10003000841684118A01820701340234043408349E
:10004000103420344034803407398A018207283440
:1000500029342A342B342C342D342E342F340730C9
:10006000B600193053200030B6009F3053200030C6
:1000700048200130B700F430572000304C200130C8
:10008000B700F43057203728452007306420452832
:100090000C20FF3A800550280C2080044F28FF3A9E
:1000A0008417800573288400360880007328B60002
:1000B0006D2064003708360403190800F730FF3E4E
:1000C000031D5F286F2059288316F83881050F39E2
:1000D000810463000F3081047328B709B609B60A9A
:0C00E0000319B70A08008312640008002E
:02400E00DC3F95
:00000001FF
