:020000000A28CC
:020008000E28C0
:100014002B30AB0040200D280E28AB032B088400A6
:100024002F08800008002B0884000008AE00AB0AEB
:1000340008002E0884002F08800008002F08840080
:100044000008AF0008002F08AC002E08AF002C08F1
:10005400AE0008002B0884000008AC002F088000C4
:060064002C08AF000800AB
:100080000130AB020030AF002B08AF070F2000306B
:10009000AF0015201B200030AF002B08AF07202039
:1000A0000F200A30AF001520C3200130AF06AF0883
:1000B000031D66287F280030AF002B08AF070F20F4
:1000C0002020AF0A15201B20AF034B281030AF00B3
:1000D0000F200130AF002B08AF07202015202E087D
:1000E000AF070F200130AF002B08AF0720200F20F3
:1000F0000230AF001520822015201B205B28013024
:10010000AB0708009A019B0108309C002F080310E0
:10011000AE0C03189A079A0C9B0C9C0B88281B08A2
:10012000AF0008009B0108309C002E0D9B0D2F088E
:100130009B0203189D289B070310AE0D9C0B95286E
:100140002E08AF001B08AE0008002E082F0203196E
:10015000CC28AF0108002E082F02031DCC28AF01C8
:1001600008002F082E02031CCC28AF0108002E081F
:100170002F020318CC28AF0108002E082F02031C01
:10018000CC28AF0108002F082E020318CC28AF019D
:0E0190000800AF08031908000130AF00080096
:00000001FF
